:100000000C94C7000C94E6000C94E6000C94E600F7
:100010000C94E6000C94E6000C94E6000C94E600C8
:100020000C94E6000C94E6000C94E6000C94E600B8
:100030000C94E6000C94E6000C94E6000C94E600A8
:100040000C94E6000C94E6000C94E6000C94E60098
:100050000C94E6000C94E6000C94E6000C94E60088
:100060000C94E6000C94E6000C94E6000C94E60078
:100070000C94E6000C94E6000C94E6000C94E60068
:100080000C94E6000C94E6000C94E6006E616E00A1
:10009000696E660000407A10F35A00A0724E18098B
:1000A0000010A5D4E80000E87648170000E40B54DF
:1000B000020000CA9A3B000000E1F50500008096AE
:1000C0009800000040420F000000A08601000000E0
:1000D000102700000000E80300000000640000009A
:1000E00000000A00000000000100000000002C7663
:1000F000D888DC674F0823DFC1DFAE59E1B1B7967E
:10010000E5E3E453C63AE651997696E8E6C28426DA
:10011000EB898C9B62ED407C6FFCEFBC9C9F40F2B6
:10012000BAA56FA5F490055A2AF75C936B6CF96732
:100130006DC11BFCE0E40D47FEF520E6B500D0EDF7
:10014000902E0300943577050080841E080000205F
:100150004E0A000000C80C333333330F986E1283FD
:100160001141EF8D2114893BE65516CFFEE6DB18D1
:10017000D1844B381BF77C1D901DA4BBE424203296
:1001800084725E228100C9F124ECA1E53D2711248F
:100190001FBECFEFD0E4DEBFCDBF12E0A0E0B1E0E4
:1001A000E8E5F5E700E00BBF02C007900D92AA3B1F
:1001B000B107D9F725E0AAEBB2E001C01D92AB3040
:1001C000B207E1F70E94F6100C94AA3A0C940000D2
:1001D0002F923F924F925F926F927F928F929F9257
:1001E000AF92BF92CF92DF92EF92FF920F931F9345
:1001F000CF93DF93CDB7DEB763970FB6F894DEBF2A
:100200000FBECDBF6C014B012A01FC011782168283
:10021000838181FF43C3AE014F5F5F4F3A01F60117
:100220009381F40193FD859193FF81914F01882380
:1002300009F430C3853239F493FD859193FF8191A0
:100240004F01853239F4B60190E00E949339520192
:100250002501E5CF10E0F12C20E02032A0F48B3214
:1002600069F030F4803259F0833269F420612CC097
:100270008D3239F0803339F4216026C02260246049
:1002800023C0286021C027FD27C030ED380F3A3049
:1002900078F426FF06C0FAE01F9F300D1124132FBB
:1002A00013C04AE0F49E300D1124F32E20620CC0DE
:1002B0008E3221F426FDEEC2206406C08C3611F485
:1002C000206802C0883641F4F40193FD859193FFC4
:1002D00081914F018111C1CF9BEB980F933018F49E
:1002E0002061805E06C09BE9980F933008F071C1D1
:1002F0002F7E26FF16E02F73322E853619F42064E8
:10030000322E08C0863621F4F22FF0683F2E02C04C
:100310001111115037FE07C01C3350F4EE24E39442
:10032000E10E27E00BC0183038F027E017E005C0D9
:1003300027E04CE3E42E02C0212FE12C520144E0DF
:10034000A40EB11CF20160817181828193810E2D16
:10035000A3010E94A5382C01098100FF02C003FF00
:1003600007C031FC08C032FE09C030E2232E07C0AE
:100370002DE2222E04C09BE2292E01C0212C802FC9
:100380008C7019F0211068C2A8C237FE0FC0E40CAF
:1003900004FF04C08A81813309F4EA941E1474F5C1
:1003A000F8E0FE1578F588E0E82E2CC036FC2AC06F
:1003B000812F90E0841595059CF02CEF42162FEFCD
:1003C000520674F0432D4068342E0AC0E2E0F0E09B
:1003D000EC0FFD1FE10FF11D8081803319F41150E6
:1003E0001111F4CF37FE0EC0EE24E394E10E812FFD
:1003F00090E0481659062CF4141904C0EE24E39436
:1004000001C010E037FE06C01414150434F4C20114
:10041000019605C085E090E002C081E090E02110E7
:100420000196112331F0212F30E02F5F3F4F820FD3
:10043000931F2F2D30E08217930714F4F81A01C090
:10044000F12C832D897049F4FF2039F0B60180E248
:1004500090E00E949339FA94F7CF222029F0B60158
:10046000822D90E00E94933933FC09C0FF2039F0BF
:10047000B60180E390E00E949339FA94F7CF37FEFB
:100480005AC0942D852D57FE02C090E080E0292EA1
:10049000382E20E030E0A2014E1951095D874C87CB
:1004A000A201421953095F874E87612F70E04427EC
:1004B0005527461B570B598B488B5FEF2516350682
:1004C00049F4B6018EE290E02A8B3B8B0E9493396F
:1004D0003B892A89421453046CF04C855D85421592
:1004E000530544F4EE85FF85E20FF31FE60DF71D7B
:1004F000818101C080E351E0251A31082F5F3F4F11
:1005000048895989241635064CF0B60190E02A8BAB
:100510003B8B0E9493392A893B89CFCF2414350421
:1005200039F49A81963318F4953311F404FF81E37A
:10053000B60190E04BC08A81813309F00F7EB6018D
:1005400090E00E949339111105C034FC18C085E673
:1005500090E017C0B6018EE290E00E94933982E0ED
:10056000EE24E394E80EF301E80FF11D8081B6015B
:1005700090E00E94933911508E2D91F7E6CF85E4DB
:1005800090E0B6010E94933957FC05C04114510414
:1005900039F404FF05C05194419451088DE201C023
:1005A0008BE2B60190E00E94933980E39AE049160D
:1005B00051042CF08F5F5AE0451A5108F7CFB6016D
:1005C00090E00E949339B601C201C0960E9493390F
:1005D00057C1833631F0833779F0833509F058C03D
:1005E00021C05201E2E0AE0EB11CF201808189838C
:1005F00001E010E0230114C05201F2E0AF0EB11C83
:10060000F2014080518026FF03C0612F70E002C0DC
:100610006FEF7FEFC2012A8B0E9488398C012A89F3
:100620002F7715C05201F2E0AF0EB11CF2014080ED
:10063000518026FF03C0612F70E002C06FEF7FEF93
:10064000C2012A8B0E947D398C012A892068322EB2
:1006500023FD1AC08F2D90E008171907A8F4B601E2
:1006600080E290E00E949339FA94F4CFF20137FCD3
:10067000859137FE81912F01B60190E00E94933958
:10068000F110FA94015011090115110579F7F8C01C
:10069000843611F0893659F5520127FF09C0F4E07C
:1006A000AF0EB11CF20160817181828193810AC019
:1006B000F2E0AF0EB11CF20160817181072E000CD7
:1006C000880B990B2F76322E97FF09C09095809555
:1006D000709561957F4F8F4F9F4F2068322E2AE093
:1006E00030E0A3010E944C3AE82EE6183FC0022FEA
:1006F000853721F40F7E2AE030E01DC0097F8F3658
:1007000091F018F4883559F0C5C0803719F0883752
:1007100011F0C0C0006104FF09C0046007C024FFDD
:1007200008C0066006C028E030E005C020E130E0E7
:1007300002C020E132E0520107FF09C0F4E0AF0E31
:10074000B11CF201608171818281938108C0F2E065
:10075000AF0EB11CF2016081718180E090E0A301D5
:100760000E944C3AE82EE6180F77302E36FE0BC06A
:10077000332D3E7FE11650F434FE0AC032FC08C02F
:10078000332D3E7E05C00E2D332D03C00E2D01C02E
:10079000012F34FF0CC0FE01EE0DF11D808180336E
:1007A00011F4397E08C032FF05C00E5F04C0832FEC
:1007B000867809F00F5F33FD13C030FF06C01E2D91
:1007C0000F1518F41F0D101B0F2D0F1568F4B6012F
:1007D00080E290E03B8B0E9493390F5F3B89F5CF1D
:1007E0000F1510F4F01A01C0F12C34FF12C0B6013D
:1007F00080E390E03B8B0E9493393B8932FF17C026
:1008000031FD03C088E790E002C088E590E0B601C2
:100810000CC0832F867859F031FF02C08BE201C0F3
:1008200080E237FD8DE2B60190E00E949339E11637
:1008300038F4B60180E390E00E9493391150F7CF6D
:10084000EA94F301EE0DF11D8081B60190E00E9463
:100850009339E110F5CF14C0F4E0FF1558F584E0AA
:10086000F81A33FE1EC0211026C003FF2AC00CE870
:1008700010E0F32DF0713F2EF8018491811124C016
:10088000FF2009F4E5CCB60180E290E00E949339A4
:10089000FA94F6CFF6018681978126C08FEF9FEFFD
:1008A00023C0B60180E290E00E949339FA94F110DF
:1008B000F8CFD9CFF12CB601822D90E00E94933968
:1008C000D4CF00E910E0D5CF31108052B60190E0CE
:1008D0000E9493390F5F1F4FCFCF23E02F1510F4E5
:1008E00083E0BECFF12CC1CF63960FB6F894DEBF84
:1008F0000FBECDBFDF91CF911F910F91FF90EF9071
:10090000DF90CF90BF90AF909F908F907F906F902F
:100910005F904F903F902F9008958093C6008091F4
:10092000C00085FFFCCF81E090E008958091C00079
:1009300087FFFCCF8091C60090E0089594EA9093E1
:10094000BC002091BC0030E0220F232F221F330B6C
:10095000232BB9F39091B900987F983021F0903112
:1009600011F080E00895880F862B8093BB0084E807
:100970008093BC008091BC0090E0880F892F881F75
:10098000990B892BB9F38091B900982F987F61302A
:10099000710531F0672B11F4983119F781E0089552
:1009A00081E09034E1F380E00895CF92DF92EF92FE
:1009B000FF920F931F93CF93DF93CDB7DEB72797A7
:1009C0000FB6F894DEBF0FBECDBF84EA8093BC00A3
:1009D0008091BC0090E0880F892F881F990B892B8C
:1009E000B9F38091B900887F883009F414C180314F
:1009F00009F411C182E08093BB0084E88093BC00BD
:100A00008091BC0090E0880F892F881F990B892B5B
:100A1000B9F38091B90084EA8093BC008091BC0056
:100A200090E0880F892F881F990B892BB9F380914B
:100A3000B900887F883009F4DCC0803109F4D9C05E
:100A4000FE013196AE01495F5F4F24EC2093BC005C
:100A50008091BC0090E0880F892F881F990B892B0B
:100A6000B9F38091BB008193E417F50779F784E827
:100A70008093BC008091BC0090E0880F892F881F74
:100A8000990B892BB9F38091BB008F8384E9809304
:100A9000BC008091BC0084FDFCCF8B81982F969583
:100AA000969596959670492F440F440F490F8F7075
:100AB000480F8A81982F9695969596959E70092F46
:100AC000000F000F090F8F70080F8981982F9695DE
:100AD000969596959E70E92FEE0FEE0FE90F8F70A9
:100AE000E80F8C81982F9695969596959670292F5C
:100AF000220F220F290F8F70280F9E8194FB8827C9
:100B000080F9880FC82ECC0CCC0CC80E892F8F70A2
:100B1000C80E8F8197FD91C0982F92959F708F700E
:100B20003AE0939F800D112490E08053984FD12C90
:100B3000E12CF12C35E1CC0CDD1CEE1CFF1C3A95B0
:100B4000D1F7E22A50E060E070E0FBE0440F551F6F
:100B5000661F771FFA95D1F74C295D296E297F29E9
:100B600010E020E030E0000F111F221F331F000FA4
:100B7000111F221F331F000F111F221F331F000FD1
:100B8000111F221F331F000F111F221F331F402B65
:100B9000512B622B732B0E2F10E020E030E03695A6
:100BA000279517950795402B512B622B732B8C5B48
:100BB0009740A0E0B0E019E1880F991FAA1FBB1F62
:100BC0001A95D1F78A019B01082B192B2A2B3B2B55
:100BD000C901B80127960FB6F894DEBF0FBECDBF8E
:100BE000DF91CF911F910F91FF90EF90DF90CF9009
:100BF000089583EA8093BB0084E88093BC008091D1
:100C0000BC0090E0880F892F881F990B892BB9F3BE
:100C10008091B90015CF82EA8093BB0084E880936D
:100C2000BC008091BC0090E0880F892F881F990B31
:100C3000892BB9F38091B900DDCE982F92959F70E2
:100C40008F701AE0919F800D112490E08459984F85
:100C50006ECF55985D9854985C985D985C9808950F
:100C6000CF93DF93FC01908155985D9885E0282F04
:100C70002A95F1F7549A8A95F1F7990F28E043E005
:100C800035E0559A842F8A95F1F797FD6FC1549AF4
:100C9000832F8A95F1F755985D98832F8A95F1F700
:100CA0004D9BFECF990F215061F7559A83E08A95AD
:100CB000F1F754985C9885E0982F9A95F1F755983C
:100CC0005D98982F9A95F1F799B1559A8A95F1F711
:100CD00028E090E243E035E0559A842F8A95F1F7B9
:100CE00097FD41C1549A832F8A95F1F755985D98E5
:100CF000832F8A95F1F74D9BFECF990F215061F715
:100D0000559A83E08A95F1F754985C9885E0982F7E
:100D10009A95F1F755985D98982F9A95F1F799B1B2
:100D2000559A982F9A95F1F7908155985D98282FAC
:100D30002A95F1F7549A8A95F1F7990F916028E076
:100D400043E035E0559A842F8A95F1F797FD08C165
:100D5000549A832F8A95F1F755985D98832F8A9539
:100D6000F1F74D9BFECF990F215061F7559A83E023
:100D70008A95F1F754985C9885E0982F9A95F1F749
:100D800055985D98982F9A95F1F799B1559A8A954B
:100D9000F1F720E030E040E085E0C0E8D0E0559A8F
:100DA000982F9A95F1F755985D98982F9A95F1F7A5
:100DB0004D9BFECF4C9B08C0DE01022E02C0B595B4
:100DC000A7950A94E2F74A2B2F5F3F4F2830310551
:100DD00031F7559A83E0982F9A95F1F754985C98DB
:100DE00095E0292F2A95F1F755985D98292F2A9596
:100DF000F1F7559A54985C98292F2A95F1F7549A4F
:100E0000292F2A95F1F755985D988A95F1F754980E
:100E10005C98892F8A95F1F74F706295607F642BFB
:100E2000808155985D98292F2A95F1F7549A9A95C3
:100E3000F1F7880F98E043E035E0559A242F2A9582
:100E4000F1F787FD8AC0549A232F2A95F1F7559818
:100E50005D98232F2A95F1F74D9BFECF880F915077
:100E600061F7559A83E08A95F1F754985C9885E08C
:100E7000982F9A95F1F755985D98982F9A95F1F7D4
:100E800099B1559A8A95F1F798E080E243E035E010
:100E9000559A242F2A95F1F787FD5CC0549A232F89
:100EA0002A95F1F755985D98232F2A95F1F74D9BD8
:100EB000FECF880F915061F7559A83E08A95F1F73C
:100EC00054985C9885E0982F9A95F1F755985D981D
:100ED000982F9A95F1F799B1559A8A95F1F788E08C
:100EE00033E025E0559A932F9A95F1F767FD41C0BD
:100EF000549A922F9A95F1F755985D98922F9A955A
:100F0000F1F74D9BFECF660F815061F7559A93E044
:100F1000892F8A95F1F754985C9885E0282F2A95B7
:100F2000F1F755985D98282F2A95F1F729B1559A30
:100F3000282F2A95F1F7549A282F2A95F1F75598DA
:100F40005D989A95F1F754985C988A95F1F7DF913E
:100F5000CF91089554985C98A2CF54985C9874CF20
:100F600054985C98F6CE54985C98BDCE54985C9892
:100F70008FCE54985C98BDCFCF93DF93FC01208136
:100F800055985D9885E0982F9A95F1F7549A8A952F
:100F9000F1F7220F38E043E095E0559A842F8A95C7
:100FA000F1F727FD79C1549A892F8A95F1F7559861
:100FB0005D98892F8A95F1F74D9BFECF220F315016
:100FC00061F7559A83E08A95F1F754985C9885E02B
:100FD000982F9A95F1F755985D98982F9A95F1F773
:100FE00099B1559A8A95F1F738E024E243E095E00B
:100FF000559A842F8A95F1F727FD4BC1549A892F72
:101000008A95F1F755985D98892F8A95F1F74D9B50
:10101000FECF220F315061F7559A83E08A95F1F7A0
:1010200054985C9885E0982F9A95F1F755985D98BB
:10103000982F9A95F1F799B1559A982F9A95F1F7BB
:10104000208155985D98982F9A95F1F7549A8A9532
:10105000F1F7220F216038E043E095E0559A842FA4
:101060008A95F1F727FD12C1549A892F8A95F1F7D5
:1010700055985D98892F8A95F1F74D9BFECF220FE9
:10108000315061F7559A83E08A95F1F754985C984E
:1010900085E0982F9A95F1F755985D98982F9A9535
:1010A000F1F799B1559A8A95F1F720E030E0A0E088
:1010B00055E0C0E8D0E0559A852F8A95F1F755980C
:1010C0005D98452F4A95F1F74D9BFECF4C9B08C08C
:1010D000CE01022E02C0959587950A94E2F7A82BBF
:1010E0002F5F3F4F2830310531F7559A83E0982F15
:1010F0009A95F1F754985C9825E0922F9A95F1F71C
:1011000055985D98922F9A95F1F7559A54985C9856
:10111000922F9A95F1F7549A922F9A95F1F7559844
:101120005D988A95F1F754985C98822F8A95F1F72B
:10113000CB018470992782959295907F9827807F24
:101140009827962F9370982BAC7E9A2B8081559878
:101150005D98322F3A95F1F7549A2A95F1F7880F56
:1011600028E053E045E0559A352F3A95F1F787FD91
:101170008AC0549A342F3A95F1F755985D98342FD8
:101180003A95F1F74D9BFECF880F215061F7559AA4
:1011900083E08A95F1F754985C9885E0282F2A958A
:1011A000F1F755985D98282F2A95F1F729B1559AAE
:1011B0008A95F1F728E084E253E045E0559A352F0F
:1011C0003A95F1F787FD5CC0549A342F3A95F1F7C0
:1011D00055985D98342F3A95F1F74D9BFECF880FC7
:1011E000215061F7559A83E08A95F1F754985C98FD
:1011F00085E0282F2A95F1F755985D98282F2A9594
:10120000F1F729B1559A8A95F1F788E043E035E086
:10121000559A242F2A95F1F797FD41C0549A232F10
:101220002A95F1F755985D98232F2A95F1F74D9B54
:10123000FECF990F815061F7559A93E0892F8A95D7
:10124000F1F754985C9885E0282F2A95F1F7559886
:101250005D98282F2A95F1F729B1559A282F2A95BC
:10126000F1F7549A282F2A95F1F755985D989A9599
:10127000F1F754985C988A95F1F7DF91CF91089532
:1012800054985C98A2CF54985C9874CF54985C980A
:10129000ECCE54985C98B3CE54985C9885CE549814
:1012A0005C98BDCFFF920F931F93CF93DF93DC0128
:1012B000EC9157985F9885E0982F9A95F1F7569A98
:1012C0008A95F1F7EE0FF8E0D3E0C5E0579A8D2F3D
:1012D0008A95F1F7E7FDAFC1569A8C2F8A95F1F701
:1012E00057985F988C2F8A95F1F789B190E0880F15
:1012F000892F881F990B892BC1F3EE0FF15031F71D
:10130000579A83E08A95F1F756985E9885E0982F72
:101310009A95F1F757985F98982F9A95F1F799B1A8
:10132000579A8A95F1F7F8E0E7E1D3E0C5E0579ADC
:101330008D2F8A95F1F7E7FD7BC1569A8C2F8A9500
:10134000F1F757985F988C2F8A95F1F789B190E063
:10135000880F892F881F990B892BC1F3EE0FF1504D
:1013600031F7579A83E08A95F1F756985E9895E0A1
:10137000892F8A95F1F757985F98892F8A95F1F709
:1013800089B1579A892F8A95F1F78C9157985F9870
:10139000E92FEA95F1F7569A9A95F1F7880F81604F
:1013A00098E0D3E0C5E0579AED2FEA95F1F787FD75
:1013B0003CC1569AEC2FEA95F1F757985F98EC2FBD
:1013C000EA95F1F7E9B1F0E0EE0FEF2FEE1FFF0B1A
:1013D000EF2BC1F3880F915031F7579A83E08A952C
:1013E000F1F756985E9885E0982F9A95F1F75798FF
:1013F0005F98982F9A95F1F799B1579A8A95F1F7D6
:1014000080E090E0F12C15E0C0E8D0E0579AE12FA1
:10141000EA95F1F757985F98E12FEA95F1F7E9B16E
:10142000F0E0EE0FEF2FEE1FFF0BEF2BC1F34E9B03
:1014300008C0FE01082E02C0F595E7950A94E2F770
:10144000FE2A01968830910509F7579A83E0982F74
:101450009A95F1F756985E9895E0E92FEA95F1F79D
:1014600057985F98E92FEA95F1F7579A56985E9842
:10147000E92FEA95F1F7569AE92FEA95F1F757988F
:101480005F988A95F1F756985E98892F8A95F1F7BB
:10149000220F331F220F331F022B42955295507F8C
:1014A0005427407F5427402B660F771F6295729513
:1014B000707F7627607F7627642B8F2D807C682B4A
:1014C0002C9157985F98892F8A95F1F7569A9A959B
:1014D000F1F7220F38E053E045E0579A852F8A95BF
:1014E000F1F727FD9FC0569A842F8A95F1F75798F8
:1014F0005F98842F8A95F1F789B190E0880F892F42
:10150000881F990B892BC1F3220F315031F7579A5D
:1015100083E08A95F1F756985E9885E0982F9A9522
:10152000F1F757985F98982F9A95F1F799B1579AD4
:101530008A95F1F738E027E153E045E0579A852F87
:101540008A95F1F727FD6BC0569A842F8A95F1F79B
:1015500057985F98842F8A95F1F789B190E0880FAA
:10156000892F881F990B892BC1F3220F315031F736
:10157000579A83E08A95F1F756985E9885E0982F00
:101580009A95F1F757985F98982F9A95F1F799B136
:10159000579A8A95F1F728E043E035E0579A842F6F
:1015A0008A95F1F767FD4AC0569A832F8A95F1F71D
:1015B00057985F98832F8A95F1F789B190E0880F4B
:1015C000892F881F990B892BC1F3660F215031F7A2
:1015D000579A93E0892F8A95F1F756985E9885E09F
:1015E000282F2A95F1F757985F98282F2A95F1F719
:1015F00029B1579A282F2A95F1F7569A282F2A951C
:10160000F1F757985F989A95F1F756985E988A95F2
:10161000F1F7DF91CF911F910F91FF9008955698A8
:101620005E9893CF56985E985FCF56985E98C2CEDC
:1016300056985E9883CE56985E984FCE56985E9890
:10164000B4CFFC01808157985F9895E0292F2A95A7
:10165000F1F7569A9A95F1F7880F98E053E045E034
:10166000579A252F2A95F1F787FD94C1569A242F72
:101670002A95F1F757985F98242F2A95F1F729B109
:1016800030E0220F232F221F330B232BC1F3880FAF
:10169000915031F7579A83E08A95F1F756985E9802
:1016A00085E0982F9A95F1F757985F98982F9A951B
:1016B000F1F799B1579A8A95F1F798E08EE353E0E4
:1016C00045E0579A252F2A95F1F787FD60C1569A74
:1016D000242F2A95F1F757985F98242F2A95F1F730
:1016E00029B130E0220F232F221F330B232BC1F30C
:1016F000880F915031F7579A83E08A95F1F7569801
:101700005E9895E0892F8A95F1F757985F98892F11
:101710008A95F1F789B1579A892F8A95F1F78081D7
:1017200057985F98292F2A95F1F7569A9A95F1F7CD
:10173000880F816098E053E045E0579A252F2A955D
:10174000F1F787FD21C1569A242F2A95F1F7579872
:101750005F98242F2A95F1F729B130E0220F232F2B
:10176000221F330B232BC1F3880F915031F7579A67
:1017700083E08A95F1F756985E9885E0982F9A95C0
:10178000F1F757985F98982F9A95F1F799B1579A72
:101790008A95F1F780E090E050E045E0A0E8B0E005
:1017A000579A242F2A95F1F757985F98242F2A9556
:1017B000F1F729B130E0220F232F221F330B232B07
:1017C000C1F34E9B08C09D01082E02C03595279598
:1017D0000A94E2F7522B01968830910509F7579A3F
:1017E00093E0892F8A95F1F756985E9885E0282F27
:1017F0002A95F1F757985F98282F2A95F1F7579A6D
:1018000056985E98282F2A95F1F7569A282F2A95F0
:10181000F1F757985F989A95F1F756985E98982F38
:101820009A95F1F7587F652B208157985F98982FEC
:101830009A95F1F7569A8A95F1F7220F38E053E01E
:1018400045E0579A852F8A95F1F727FD9AC0569A59
:10185000842F8A95F1F757985F98842F8A95F1F72E
:1018600089B190E0880F892F881F990B892BC1F3CC
:10187000220F315031F7579A83E08A95F1F7569845
:101880005E9885E0982F9A95F1F757985F98982F72
:101890009A95F1F799B1579A8A95F1F738E02EE3C6
:1018A00053E045E0579A852F8A95F1F727FD66C0EA
:1018B000569A842F8A95F1F757985F98842F8A95C6
:1018C000F1F789B190E0880F892F881F990B892B38
:1018D000C1F3220F315031F7579A83E08A95F1F71F
:1018E00056985E9885E0982F9A95F1F757985F98EB
:1018F000982F9A95F1F799B1579A8A95F1F728E0C0
:1019000043E035E0579A842F8A95F1F767FD45C08B
:10191000569A832F8A95F1F757985F98832F8A9567
:10192000F1F789B190E0880F892F881F990B892BD7
:10193000C1F3660F215031F7579A93E0892F8A95AA
:10194000F1F756985E9885E0282F2A95F1F7579879
:101950005F98282F2A95F1F729B1579A282F2A95B1
:10196000F1F7569A282F2A95F1F757985F989A958C
:10197000F1F756985E988A95F1F7089556985E9813
:1019800098CF56985E9864CF56985E98DDCE56985C
:101990005E989ECE56985E986ACE56985E98B9CF5D
:1019A000FC01908155985D9885E0282F2A95F1F7E4
:1019B000549A8A95F1F7990F28E073E085E0559ADB
:1019C000372F3A95F1F797FDCBC0549A382F3A95B7
:1019D000F1F755985D98382F3A95F1F74D9BFECF6A
:1019E000990F215061F7559A83E08A95F1F7549841
:1019F0005C9885E0982F9A95F1F755985D98982F07
:101A00009A95F1F799B1559A8A95F1F798E033E0F4
:101A100085E0559A232F2A95F1F767FD9EC0549AC9
:101A2000282F2A95F1F755985D98282F2A95F1F7D8
:101A30004D9BFECF660F915061F7559A83E08A95D2
:101A4000F1F754985C9895E0892F8A95F1F75598AD
:101A50005D98892F8A95F1F789B1559A892F8A95D2
:101A6000F1F7808155985D98292F2A95F1F7549ABE
:101A70009A95F1F7880F816098E063E035E0559A18
:101A8000262F2A95F1F787FD65C0549A232F2A95B2
:101A9000F1F755985D98232F2A95F1F74D9BFECFCE
:101AA000880F915061F7559A83E08A95F1F7549821
:101AB0005C9885E0982F9A95F1F755985D98982F46
:101AC0009A95F1F799B1559A8A95F1F780E090E0EF
:101AD00060E035E0A0E8B0E0559A232F2A95F1F7B1
:101AE00055985D98232F2A95F1F74D9BFECF4C9B7F
:101AF00008C0FD01082E02C0F595E7950A94E2F7AB
:101B00006E2B01968830910539F7559A93E0892F0D
:101B10008A95F1F754985C9885E0282F2A95F1F77B
:101B200055985D98282F2A95F1F7559A54985C9806
:101B3000282F2A95F1F7FA016083549A282F2A95C5
:101B4000F1F755985D989A95F1F754985C988A95B5
:101B5000F1F7089554985C9899CF54985C9860CFA9
:101B600054985C9833CFFC01808155985D9895E03E
:101B7000292F2A95F1F7549A9A95F1F7880F98E052
:101B800073E035E0559A272F2A95F1F787FD89C034
:101B9000549A232F2A95F1F755985D98232F2A956B
:101BA000F1F74D9BFECF880F915061F7559A83E076
:101BB0008A95F1F754985C9885E0982F9A95F1F7FB
:101BC00055985D98982F9A95F1F799B1559A8A95FD
:101BD000F1F788E033E025E0559A932F9A95F1F7D5
:101BE00067FD5CC0549A922F9A95F1F755985D98CD
:101BF000922F9A95F1F74D9BFECF660F815061F7BA
:101C0000559A83E08A95F1F754985C9885E0982F6F
:101C10009A95F1F755985D98982F9A95F1F799B1A3
:101C2000559A8A95F1F7FA01908188E043E035E012
:101C3000559A242F2A95F1F797FD36C0549A232FF1
:101C40002A95F1F755985D98232F2A95F1F74D9B2A
:101C5000FECF990F815061F7559A93E0892F8A95AD
:101C6000F1F754985C9885E0282F2A95F1F755985C
:101C70005D98282F2A95F1F729B1559A282F2A9592
:101C8000F1F7549A282F2A95F1F755985D989A956F
:101C9000F1F754985C988A95F1F7089554985C98F8
:101CA000A2CF54985C9875CF54985C98C8CFFC012B
:101CB000208157985F9885E0982F9A95F1F7569A6A
:101CC0008A95F1F7220F38E0E3E075E0579A8E2FFE
:101CD0008A95F1F727FD9BC0569A872F8A95F1F7D1
:101CE00057985F98872F8A95F1F789B190E0880F10
:101CF000892F881F990B892BC1F3220F315031F79F
:101D0000579A83E08A95F1F756985E9885E0982F68
:101D10009A95F1F757985F98982F9A95F1F799B19E
:101D2000579A8A95F1F728E073E035E0579A872FA4
:101D30008A95F1F767FD68C0569A832F8A95F1F767
:101D400057985F98832F8A95F1F789B190E0880FB3
:101D5000892F881F990B892BC1F3660F215031F70A
:101D6000579A83E08A95F1F756985E9885E0982F08
:101D70009A95F1F757985F98982F9A95F1F799B13E
:101D8000579A8A95F1F7FA01308128E053E045E04F
:101D9000579A852F8A95F1F737FD3CC0569A842FC4
:101DA0008A95F1F757985F98842F8A95F1F789B152
:101DB00090E0880F892F881F990B892BC1F3330F6F
:101DC000215031F7579A93E0892F8A95F1F7569869
:101DD0005E9885E0282F2A95F1F757985F98282F6D
:101DE0002A95F1F729B1579A282F2A95F1F7569A93
:101DF000282F2A95F1F757985F989A95F1F75698FA
:101E00005E988A95F1F7089556985E9896CF569801
:101E10005E9863CF56985E98C2CFFC012081579898
:101E20005F9885E0982F9A95F1F7569A8A95F1F781
:101E3000220F38E0E3E075E0579A8E2F8A95F1F78C
:101E400027FDA5C0569A872F8A95F1F757985F9876
:101E5000872F8A95F1F789B190E0880F892F881F25
:101E6000990B892BC1F3220F315031F7579A83E038
:101E70008A95F1F756985E9885E0982F9A95F1F734
:101E800057985F98982F9A95F1F799B1579A8A9534
:101E9000F1F728E073E035E0579A872F8A95F1F73C
:101EA00067FD72C0569A832F8A95F1F757985F980D
:101EB000832F8A95F1F789B190E0880F892F881FC9
:101EC000990B892BC1F3660F215031F7579A83E0A4
:101ED0008A95F1F756985E9885E0982F9A95F1F7D4
:101EE00057985F98982F9A95F1F799B1579A8A95D4
:101EF000F1F7FA01BA016E5F7F4F53E045E031918F
:101F000028E0579A852F8A95F1F737FD3AC0569AFF
:101F1000842F8A95F1F757985F98842F8A95F1F767
:101F200089B190E0880F892F881F990B892BC1F305
:101F3000330F215031F7579A852F8A95F1F756982C
:101F40005E9885E0942F9A95F1F757985F98942FB3
:101F50009A95F1F799B1579A942F9A95F1F7E61758
:101F6000F70709F0CCCF569A982F9A95F1F7579822
:101F70005F9893E09A95F1F756985E988A95F1F7F5
:101F8000089556985E98C4CF56985E988CCF569810
:101F90005E9859CFFC01208184EA8093BC00809137
:101FA000BC0090E0880F892F881F990B892BB9F30B
:101FB0008091B900887F8830F1F18031E1F1609340
:101FC000BB0084E88093BC008091BC0090E0880F47
:101FD000892F881F990B892BB9F38091B900FA01D9
:101FE00080818093BB0084E88093BC008091BC001A
:101FF00090E0880F892F881F990B892BB9F3809166
:10200000B900FA0181818093BB0084E88093BC0011
:102010008091BC0090E0880F892F881F990B892B35
:10202000B9F38091B90084E98093BC008091BC0031
:1020300084FDFCCF0895822F90E0880F991F809334
:10204000BB0084E88093BC008091BC0090E0880FC6
:10205000892F881F990B892BB9F38091B900AFCFD5
:10206000FC01208184EA8093BC008091BC0090E058
:10207000880F892F881F990B892BB9F38091B9009C
:10208000887F883061F1803151F16093BB0084E832
:102090008093BC008091BC0090E0880F892F881F3E
:1020A000990B892BB9F38091B900FA018081809353
:1020B000BB0084E88093BC008091BC0090E0880F56
:1020C000892F881F990B892BB9F38091B90084E976
:1020D0008093BC008091BC0084FDFCCF0895822FCA
:1020E00090E0880F991F8093BB0084E88093BC0028
:1020F0008091BC0090E0880F892F881F990B892B55
:10210000B9F38091B900C1CF98E043E035E0559A2A
:10211000242F2A95F1F787FD2AC0549A232F2A9558
:10212000F1F755985D98232F2A95F1F74D9BFECF37
:10213000880F915061F7559A83E08A95F1F754988A
:102140005C9895E0892F8A95F1F755985D98892FCD
:102150008A95F1F789B1559A9A95F1F784FB66272C
:1021600060F970E0CB0121E08227817008955498D6
:102170005C98D4CF98E053E045E0579A252F2A95F4
:10218000F1F787FD30C0569A242F2A95F1F757981A
:102190005F98242F2A95F1F729B130E0220F232FE1
:1021A000221F330B232BC1F3880F915031F7579A1D
:1021B00083E08A95F1F756985E9895E0892F8A9585
:1021C000F1F757985F98892F8A95F1F789B1579A57
:1021D0009A95F1F786FB662760F970E0CB0121E064
:1021E00082278170089556985E98CECFCF93DF9363
:1021F000CDB7DEB7C153D1400FB6F894DEBF0FBEE6
:10220000CDBF1092C50089E18093C40086E0809321
:10221000C20018E1D12ED092C10083EF94E02DE8E6
:1022200034E03093FC042093FB0426E934E030933F
:10223000FE042093FD0423E02093F6049093080508
:102240008093070590930605809305051092B900C9
:1022500080E28093B80084E08093BC003898409A74
:102260003998419A80917A00887F80937A00809192
:102270007A00876080937A0080917C008F738093CE
:102280007C0080917C00806480937C0080917A0047
:10229000806880937A0080917C00807F80937C00AE
:1022A00080917C00846080937C000B9A13982FEFC0
:1022B00039E648E1215030404040E1F700C00000DD
:1022C000139A5FEF89E698E1515080409040E1F722
:1022D00000C00000529A539A5A9A5B980E942906AD
:1022E00018E6CF5DDE4F1883C152D14060E070E048
:1022F000CE018F5D9E4F0E9430067E01F394A701B0
:1023000060E2CE018F5D9E4F0E94D00CF70180816C
:102310008F6089839E012F5F3F4F4901A90160E2D1
:10232000CE018F5D9E4F0E94B30D67E070E0CE013D
:102330008F5D9E4F0E94BC0709E20983A40161E200
:10234000CE018F5D9E4F0E94B30D89E6B82EC05E10
:10235000DE4FB882C052D14060E070E0CE01805EB6
:102360009E4F0E943006A70160E2CE01805E9E4F24
:102370000E94D00CF70180818F608983A40160E204
:10238000CE01805E9E4F0E94B30D67E070E0CE01EB
:10239000805E9E4F0E94BC070983A40161E2CE01CA
:1023A000805E9E4F0E94B30D57985F9856985E9836
:1023B0005F985E98C15EDE4F1883CF51D14001E037
:1023C00010E021E030E040E050E061E070E0CE015C
:1023D000815E9E4F0E945209D982A40166E1CE011E
:1023E000815E9E4F0E94570E61E070E0CE01815EDB
:1023F0009E4F0E94210BCC24C394C982DA82A4018F
:1024000065E1CE01815E9E4F0E940D0FC25EDE4FE0
:10241000B882CE51D14021E030E040E050E061E0B0
:1024200070E0CE01825E9E4F0E945209D982A401C3
:1024300066E1CE01825E9E4F0E94570E61E070E021
:10244000CE01825E9E4F0E94210BC982DA82A401D6
:1024500065E1CE01825E9E4F0E940D0F84EA80935B
:10246000BC008091BC0090E0880F892F881F990BD9
:10247000892BB9F38091B900887F883011F40C94CE
:10248000061C803111F40C94061C82E08093BB0082
:1024900084E88093BC008091BC0090E0880F892F75
:1024A000881F990B892BB9F38091B90061E070E026
:1024B00081E50E949E0484E88093BC008091BC006A
:1024C00090E0880F892F881F990B892BB9F3809191
:1024D000BB0094E99093BC009091BC0094FDFCCFAC
:1024E00087FF02C00C94EC1C87E492E00E94DF3965
:1024F00083E88983A4016DE08CE091E00E943010B4
:102500006CEB72E080E00E94ED2980E292E00E9494
:1025100078379093BB028093BA024AE06DE871E08D
:102520000E94052A892B11F00C94DD1C86E991E0AC
:102530000E94DF39FE01E45EFE4FC65DDE4FF98387
:10254000E883CA52D1409F0148E050E06EE971E053
:102550008091BA029091BB020E94632B8091BA02D3
:102560009091BB020E94562EC65DDE4FE881F98134
:10257000CA52D14080819181089729F45A9A87EAFA
:1025800091E00E94DF398CE0F70111928A95E9F71A
:10259000C85EDE4F188219821A821B82C851D14050
:1025A000AE01485E5E4FB70186EA91E00E94A0301E
:1025B00015E0312E00E8402E512C83E0282E9CE0BF
:1025C000A92EBB24B394AC0EBD1EF5E0AF0EB11C1A
:1025D0002CE0E22EFF24F394EC0EFD1E26E0E20E2A
:1025E000F11CC15EDE4F8881CF51D14057985F9872
:1025F000932D9A95F1F7569A932D9A95F1F7880FA6
:102600000E94BA108DE10E94BA10C15EDE4F88812F
:10261000CF51D14057985F98932D9A95F1F7569ADC
:10262000932D9A95F1F7880F81600E94BA10FE01F0
:10263000E45FFE4F20E030E040E0579A832D8A951A
:10264000F1F757985F98832D8A95F1F789B190E05B
:10265000880F892F881F990B892BC1F34E9B08C0C7
:10266000C201022E02C0959587950A94E2F7482B85
:102670002F5F3F4F2830310501F7579A822D8A95F9
:10268000F1F7569A832D8A95F1F757985F98832D25
:102690008A95F1F7579A56985E98832D8A95F1F7A7
:1026A0004193EA15FB0509F0C5CF20E030E040E09A
:1026B000579A832D8A95F1F757985F98832D8A95BD
:1026C000F1F789B190E0880F892F881F990B892B2A
:1026D000C1F34E9B08C0C201022E02C0959587959A
:1026E0000A94E2F7482B2F5F3F4F2830310501F75E
:1026F000579A822D8A95F1F756985E98832D8A9580
:10270000F1F757985F98832D8A95F1F7579A569865
:102710005E98832D8A95F1F7CF5EDE4F4883C151D5
:10272000D140569A832D8A95F1F757985F98822D5C
:102730008A95F1F756985E98832D8A95F1F7C45FD4
:10274000DE4F6880CC50D140712C762C6624C35F5C
:10275000DE4F8881CD50D140682AC25FDE4FC880ED
:10276000CE50D140D12CDC2CCC24C15FDE4F8881EF
:10277000CF50D140C82AC05FDE4F0881C051D14040
:1027800010E0102F0027CF5EDE4F8881C151D1406D
:10279000082BC25EDE4F8881CE51D14057985F989A
:1027A000932D9A95F1F7569A932D9A95F1F7880FF4
:1027B0000E94BA108DE10E94BA10C25EDE4F88817D
:1027C000CE51D14057985F98932D9A95F1F7569A2C
:1027D000932D9A95F1F7880F81600E94BA10FE013F
:1027E000E45FFE4F20E030E040E0579A832D8A9569
:1027F000F1F757985F98832D8A95F1F789B190E0AA
:10280000880F892F881F990B892BC1F34E9B08C015
:10281000C201022E02C0959587950A94E2F7482BD3
:102820002F5F3F4F2830310501F7579A822D8A9547
:10283000F1F7569A832D8A95F1F757985F98832D73
:102840008A95F1F7579A56985E98832D8A95F1F7F5
:102850004193EA15FB0509F0C5CF20E030E040E0E8
:10286000579A832D8A95F1F757985F98832D8A950B
:10287000F1F789B190E0880F892F881F990B892B78
:10288000C1F34E9B08C0C201022E02C095958795E8
:102890000A94E2F7482B2F5F3F4F2830310501F7AC
:1028A000579A822D8A95F1F756985E98832D8A95CE
:1028B000F1F757985F98832D8A95F1F7579A5698B4
:1028C0005E98832D8A95F1F7CF5EDE4F4883C15124
:1028D000D140569A832D8A95F1F757985F98822DAB
:1028E0008A95F1F756985E98832D8A95F1F7C45F23
:1028F000DE4F8881CC50D14090E0982F8827C35F6D
:10290000DE4F2881CD50D140AC01422BCC5DDE4F53
:1029100059834883C452D140C25FDE4F8881CE5074
:10292000D14090E0982F8827C15FDE4F2881CF509B
:10293000D140FC01E22BCA5DDE4FF983E883C65229
:10294000D140C05FDE4F8881C051D14090E0982FC8
:102950008827CF5EDE4F2881C151D140AC01422B88
:10296000C85DDE4F59834883C852D140C15EDE4FF7
:102970008881CF51D14057985F98932D9A95F1F760
:10298000569A932D9A95F1F7880F0E94BA108BE111
:102990000E94BA10C15EDE4F8881CF51D140579856
:1029A0005F98932D9A95F1F7569A932D9A95F1F792
:1029B000880F81600E94BA1020E030E050E0579A02
:1029C000832D8A95F1F757985F98832D8A95F1F7B3
:1029D00089B190E0880F892F881F990B892BC1F34B
:1029E0004E9B08C0C201022E02C0959587950A949D
:1029F000E2F7582B2F5F3F4F2830310501F7579AE8
:102A0000822D8A95F1F7569A832D8A95F1F757987A
:102A10005F98832D8A95F1F7579A56985E98832D83
:102A20008A95F1F720E030E040E0579A832D8A95AF
:102A3000F1F757985F98832D8A95F1F789B190E067
:102A4000880F892F881F990B892BC1F34E9B08C0D3
:102A5000C201022E02C0959587950A94E2F7482B91
:102A60002F5F3F4F2830310501F7579A822D8A9505
:102A7000F1F756985E98832D8A95F1F757985F98ED
:102A8000832D8A95F1F7579A56985E98832D8A95EB
:102A9000F1F7569A832D8A95F1F757985F98822D12
:102AA0008A95F1F756985E98832D8A95F1F71F93D2
:102AB0000F93DF92CF927F926F92842F90E0FC0170
:102AC000F52BBF016852764A072E000C880B990B34
:102AD0000E947F3620E030E04CE853E40E940B3641
:102AE0009F938F937F936F9386EC91E09F938F9347
:102AF0000E94CB39C25EDE4F8881CE51D1405798BB
:102B00005F98932D9A95F1F7569A932D9A95F1F730
:102B1000880F0E94BA108BE10E94BA10C25EDE4F8D
:102B20008881CE51D14057985F98932D9A95F1F7AF
:102B3000569A932D9A95F1F7880F81600E94BA10EA
:102B40000FB6F894DEBF0FBECDBF20E030E040E00E
:102B5000579A832D8A95F1F757985F98832D8A9518
:102B6000F1F789B190E0880F892F881F990B892B85
:102B7000C1F34E9B08C0C201022E02C095958795F5
:102B80000A94E2F7482B2F5F3F4F2830310501F7B9
:102B9000579A822D8A95F1F7569A832D8A95F1F7E7
:102BA00057985F98832D8A95F1F7579A56985E98B3
:102BB000832D8A95F1F720E030E050E0579A832D7D
:102BC0008A95F1F757985F98832D8A95F1F789B127
:102BD00090E0880F892F881F990B892BC1F34E9B9A
:102BE00008C0C201022E02C0959587950A94E2F7AB
:102BF000582B2F5F3F4F2830310501F7579A822D10
:102C00008A95F1F756985E98832D8A95F1F7579833
:102C10005F98832D8A95F1F7579A56985E98832D81
:102C20008A95F1F7569A832D8A95F1F757985F9810
:102C3000822D8A95F1F756985E98832D8A95F1F743
:102C4000C75DDE4F3881C952D1403F93C85DDE4F2A
:102C50008881C852D1408F93C95DDE4F9881C75299
:102C6000D1409F93CA5DDE4FE881C652D140EF93B9
:102C7000CB5DDE4FF881C552D140FF93CC5DDE4F76
:102C80002881C452D1402F93852F90E0942BBC0112
:102C90006852764A072E000C880B990B0E947F36EB
:102CA00020E030E04CE853E40E940B369F938F9372
:102CB0007F936F9386EC91E09F938F930E94CB3923
:102CC000CF5DDE4F8881C152D14055985D98932DDC
:102CD0009A95F1F7549A932D9A95F1F7880F0FB6BC
:102CE000F894DEBF0FBECDBF98E0559A222D2A95ED
:102CF000F1F787FDB9C5549A232D2A95F1F7559818
:102D00005D98232D2A95F1F74D9BFECF880F9150AA
:102D100061F7559A822D8A95F1F754985C98832D26
:102D20008A95F1F755985D98832D8A95F1F789B1C9
:102D3000559A832D8A95F1F788EA0E948410CF5D19
:102D4000DE4F8881C152D14055985D98932D9A9558
:102D5000F1F7549A932D9A95F1F7880F816098E0D6
:102D6000559A222D2A95F1F787FD7BC5549A232D7C
:102D70002A95F1F755985D98232D2A95F1F74D9BEB
:102D8000FECF880F915061F7559A822D8A95F1F701
:102D900054985C98832D8A95F1F755985D98832D0A
:102DA0008A95F1F789B1559A832D8A95F1F7FE013D
:102DB000E45FFE4F80E090E030E0559A232D2A95A5
:102DC000F1F755985D98232D2A95F1F74D9BFECF8D
:102DD0004C9B08C0A201082E02C0559547950A9445
:102DE000E2F7342B01968830910539F7559A822DF8
:102DF0008A95F1F7549A832D8A95F1F755985D9845
:102E0000832D8A95F1F7559A54985C98832D8A956D
:102E1000F1F73193EA15FB0569F680E090E040E0B8
:102E2000559A232D2A95F1F755985D98232D2A95CB
:102E3000F1F74D9BFECF4C9B08C09201082E02C0BB
:102E4000359527950A94E2F7422B01968830910533
:102E500039F7559A822D8A95F1F754985C98832D0D
:102E60008A95F1F755985D98832D8A95F1F7559AD3
:102E700054985C98832D8A95F1F7CF5EDE4F488396
:102E8000C151D140549A832D8A95F1F755985D9898
:102E9000822D8A95F1F754985C98832D8A95F1F7E5
:102EA000C35FDE4FA881CD50D140B0E0BA2FAA2732
:102EB000C45FDE4F8881CC50D140A82BC15FDE4F6C
:102EC0004881CF50D14050E0542F4427C25FDE4F9D
:102ED0008881CE50D140482BCF5EDE4F6881C151F2
:102EE000D14070E0762F6627C05FDE4F8881C051E9
:102EF000D140682BC05EDE4F8881C052D1405598CA
:102F00005D98932D9A95F1F7549A932D9A95F1F730
:102F1000880F98E0559A222D2A95F1F787FD9EC4D7
:102F2000549A232D2A95F1F755985D98232D2A95CB
:102F3000F1F74D9BFECF880F915061F7559A822D86
:102F40008A95F1F754985C98832D8A95F1F75598F6
:102F50005D98832D8A95F1F789B1559A832D8A95CD
:102F6000F1F798E088EA559A222D2A95F1F787FD26
:102F700072C4549A232D2A95F1F755985D98232D04
:102F80002A95F1F74D9BFECF880F915061F7559A26
:102F9000822D8A95F1F754985C98832D8A95F1F7E4
:102FA00055985D98832D8A95F1F789B1559A832DAF
:102FB0008A95F1F7C05EDE4F8881C052D1405598A6
:102FC0005D98932D9A95F1F7549A932D9A95F1F770
:102FD000880F816098E0559A222D2A95F1F787FD98
:102FE00037C4549A232D2A95F1F755985D98232DCF
:102FF0002A95F1F74D9BFECF880F915061F7559AB6
:10300000822D8A95F1F754985C98832D8A95F1F773
:1030100055985D98832D8A95F1F789B1559A832D3E
:103020008A95F1F7FE01E45FFE4F80E090E010E04A
:10303000559A232D2A95F1F755985D98232D2A95B9
:10304000F1F74D9BFECF4C9B08C09201082E02C0A9
:10305000359527950A94E2F7122B01968830910551
:1030600039F7559A822D8A95F1F7549A832D8A95CE
:10307000F1F755985D98832D8A95F1F7559A5498F4
:103080005C98832D8A95F1F71193EA15FB0569F693
:1030900080E090E0E0E0559A232D2A95F1F75598CD
:1030A0005D98232D2A95F1F74D9BFECF4C9B08C0D0
:1030B0009201082E02C0359527950A94E2F7E22B7B
:1030C00001968830910539F7559A822D8A95F1F746
:1030D00054985C98832D8A95F1F755985D98832DC7
:1030E0008A95F1F7559A54985C98832D8A95F1F753
:1030F000CF5EDE4FE883C151D140549A832D8A952B
:10310000F1F755985D98822D8A95F1F754985C985F
:10311000832D8A95F1F7C35FDE4F6880CD50D14093
:10312000712C762C6624C45FDE4F8881CC50D14050
:10313000682AC15FDE4FC880CF50D140D12CDC2C33
:10314000CC24C25FDE4F8881CE50D140C82ACF5EEA
:10315000DE4F0881C151D14010E0102F0027C05F21
:10316000DE4F8881C051D140082BCF5DDE4F888172
:10317000C152D14055985D98932D9A95F1F7549A84
:10318000932D9A95F1F7880F98E0559A222D2A955C
:10319000F1F787FD5AC3549A232D2A95F1F75598D4
:1031A0005D98232D2A95F1F74D9BFECF880F915006
:1031B00061F7559A822D8A95F1F754985C98832D82
:1031C0008A95F1F755985D98832D8A95F1F789B125
:1031D000559A832D8A95F1F798E086E2559A222D2B
:1031E0002A95F1F787FD2EC3549A232D2A95F1F7DE
:1031F00055985D98232D2A95F1F74D9BFECF880FAA
:10320000915061F7559A822D8A95F1F754985C9800
:10321000832D8A95F1F755985D98832D8A95F1F75E
:1032200089B1559A832D8A95F1F7CF5DDE4F88815C
:10323000C152D14055985D98932D9A95F1F7549AC3
:10324000932D9A95F1F7880F816098E0559A222D79
:103250002A95F1F787FDF3C2549A232D2A95F1F7A9
:1032600055985D98232D2A95F1F74D9BFECF880F39
:10327000915061F7559A822D8A95F1F754985C9890
:10328000832D8A95F1F755985D98832D8A95F1F7EE
:1032900089B1559A832D8A95F1F780E090E0E0E0BE
:1032A000559A232D2A95F1F755985D98232D2A9547
:1032B000F1F74D9BFECF4C9B08C09201082E02C037
:1032C000359527950A94E2F7E22B0196883091050F
:1032D00039F7559A822D8A95F1F754985C98832D89
:1032E0008A95F1F755985D98832D8A95F1F7559A4F
:1032F00054985C98832D8A95F1F7549A832D8A957A
:10330000F1F755985D98822D8A95F1F754985C985D
:10331000832D8A95F1F77F936F935F934F93BF93BC
:10332000AF931F92EF9380EE91E09F938F930E9453
:10333000CB39C05EDE4F8881C052D14055985D9830
:10334000932D9A95F1F7549A932D9A95F1F7880F4A
:103350000FB6F894DEBF0FBECDBF98E0559A222D70
:103360002A95F1F787FD68C2549A232D2A95F1F723
:1033700055985D98232D2A95F1F74D9BFECF880F28
:10338000915061F7559A822D8A95F1F754985C987F
:10339000832D8A95F1F755985D98832D8A95F1F7DD
:1033A00089B1559A832D8A95F1F786E20E9484109F
:1033B000C05EDE4F8881C052D14055985D98932DF4
:1033C0009A95F1F7549A932D9A95F1F7880F8160A9
:1033D00098E0559A222D2A95F1F787FD2AC2549A32
:1033E000232D2A95F1F755985D98232D2A95F1F70D
:1033F0004D9BFECF880F915061F7559A822D8A958B
:10340000F1F754985C98832D8A95F1F755985D985B
:10341000832D8A95F1F789B1559A832D8A95F1F715
:1034200080E090E040E0559A232D2A95F1F75598D9
:103430005D98232D2A95F1F74D9BFECF4C9B08C03C
:103440009201082E02C0359527950A94E2F7422B87
:1034500001968830910539F7559A822D8A95F1F7B2
:1034600054985C98832D8A95F1F755985D98832D33
:103470008A95F1F7559A54985C98832D8A95F1F7BF
:10348000549A832D8A95F1F755985D98822D8A95E7
:10349000F1F754985C98832D8A95F1F71F930F9359
:1034A000DF92CF927F926F921F924F9380EE91E0C6
:1034B0009F938F930E94CB3980917A008064809390
:1034C0007A000FB6F894DEBF0FBECDBF80917A00B0
:1034D00086FDFCCF609178007091790080E090E0EB
:1034E0000E947D3620E030E040E85AE30E940B372E
:1034F00020E030E84BE355E40E940B3720E030E950
:1035000044E255E40E949E352AE939E949E551EC47
:103510000E940B369F938F937F936F938AEF91E076
:103520009F938F930E94CB3942E16DE871E08091C7
:10353000BA029091BB020E94052A0F900F900F9043
:103540000F900F900F90892B09F0B5C18091BA02AE
:103550009091BB02FC0142855385648575850E946C
:10356000622E892B09F4C9C18091BA029091BB02E5
:103570000E94562E84EA8093BC008091BC0090E0AB
:10358000880F892F881F990B892BB9F38091B90077
:10359000887F883009F47DC1803109F47AC182E0E6
:1035A0008093BB0084E88093BC008091BC0090E0D5
:1035B000880F892F881F990B892BB9F38091B90047
:1035C00084EA8093BC008091BC0090E0880F892F32
:1035D000881F990B892BB9F38091B900887F8830B7
:1035E00009F445C1803109F442C1FE01E45FFE4F98
:1035F00024EC2093BC008091BC0090E0880F892FC0
:10360000881F990B892BB9F38091BB008193EE152C
:10361000FF0579F784E88093BC008091BC0090E0BE
:10362000880F892F881F990B892BB9F38091BB00D4
:10363000CE5EDE4F8883C251D14084E98093BC00C6
:103640008091BC0084FDFCCFC25FDE4F8881CE50EC
:10365000D140982F9695969596959670292F220F82
:10366000220F920F8F70980FC45DDE4F9883CC525B
:10367000D140C35FDE4F8881CD50D140982F9695C1
:10368000969596959E70292F220F220F920F8F707C
:10369000980FC05DDE4F9883C053D140C45FDE4FAA
:1036A0002881CC50D140822F8695869586958E7044
:1036B000982F990F990F890F922F9F70890FCF5CC8
:1036C000DE4F8883C153D140C15FDE4F8881CF5028
:1036D000D140982F9695969596959670392F330FE1
:1036E000330F930F8F70980FC25DDE4F9883CE52C9
:1036F000D140C05FDE4F8881C051D1408770C15D2D
:10370000DE4F8883CF52D140CF5EDE4F9881C151CA
:10371000D14094FB882780F9880F382F330F330F5F
:10372000830F392F3F70830FC35DDE4F8883CD52E7
:10373000D140CE5EDE4F8881C251D14097FDC4C0DA
:10374000982F92959F708F705AE0959F800D11244D
:1037500090E0FC01E053F84FCE5DDE4FF983E88343
:10376000C252D14027FDC4C01F92C15DDE4FE88127
:10377000CF52D140EF93CD5DDE4FF881C352D1409F
:10378000FF93CE5DDE4F2881C252D1402F931F920E
:10379000C35DDE4F3881CD52D1403F931F92C25D51
:1037A000DE4F4881CE52D1404F931F92CF5CDE4F07
:1037B0005881C153D1405F931F92C05DDE4F888115
:1037C000C053D1408F931F92C45DDE4F9881CC527D
:1037D000D1409F938CE192E09F938F930E94CB39CD
:1037E0000FB6F894DEBF0FBECDBF4A996BC05A9A90
:1037F0004B9966C05B9AFFEF29E638E1F150204013
:103800003040E1F700C000000C94F11282EA80938E
:10381000BB0084E88093BC008091BC0090E0880FDE
:10382000892F881F990B892BB9F38091B9000C94CB
:10383000451254985C98D4CD54985C9896CD549881
:103840005C980BCD54985C98D0CC54985C98A4CCE0
:1038500054985C98C7CB54985C988CCB54985C98DF
:1038600060CB54985C9883CA54985C9845CA83EAA4
:103870008093BB0084E88093BC008091BC0090E002
:10388000880F892F881F990B892BB9F38091B90074
:10389000ACCE82EA8093BB0084E88093BC00809128
:1038A000BC0090E0880F892F881F990B892BB9F3F2
:1038B0008091B90074CE86E991E00E94DF395ACE3A
:1038C0005B9899CF5A9894CF982F92959F708F704C
:1038D0003AE0939F800D112490E0AC014459584F79
:1038E000CE5DDE4F59834883C252D14027FF3CCF83
:1038F0008DE792E00E94DF3978CF86E092E00E9467
:10390000DF391F92C15DDE4FF881CF52D140FF9366
:10391000CD5DDE4F2881C352D1402F93CE5DDE4F67
:103920003881C252D1403F931F92C35DDE4F488120
:10393000CD52D1404F931F92C25DDE4F5881CE527F
:10394000D1405F931F92CF5CDE4F8881C153D1403D
:103950008F931F92C05DDE4F9881C053D1409F93DB
:103960001F92C45DDE4FE881CC52D140EF938CE1D1
:1039700092E09F938F931F928FEF8F939F928F92DE
:103980000E940F3AF40101900020E9F73197AF014E
:1039900048195909C65DDE4F28813981CA52D14084
:1039A000B4018091BA029091BB020E94632B0FB6C2
:1039B000F894DEBF0FBECDBFD7CD86EB91E00E945D
:1039C000DF399E01245E3E4FC65DDE4F398328837A
:1039D000CA52D1400C94C31288E592E00E94DF39AC
:1039E00019821A82A40160E08CE091E00E94CA0F63
:1039F00085E0E7E0F1E0DE01AD5EBE4F01900D92A3
:103A00008A95E1F7CD5EDE4FC880C351D140CC5ED0
:103A1000DE4FD880C451D140CB5EDE4F1881C551F6
:103A2000D140CA5EDE4F48815981C651D1408DECEC
:103A3000189F812D112486958695869596E0899FFD
:103A4000100D1124FA01F695E795F695E7959F017B
:103A5000ABE7B4E10E94843596958795843109F4EB
:103A600070C0106880E2898387E48A8381E08B8359
:103A70000DECC09E812D112486958695869526E0B5
:103A8000829FC00C1124CC82D09E812D112486955A
:103A90008695869536E0839FD00C1124DD821E83A7
:103AA0009F01ABE7B4E10E9484359695879564E663
:103AB000689F9001699F300D1124421B530B409F5A
:103AC000812D112486958695869596E0899F400DD7
:103AD00011244F8360E070E081E50E949E0482E043
:103AE0008093BB0084E88093BC008091BC0090E090
:103AF000880F892F881F990B892BB9F38091B90002
:103B0000F4019E01285F3F4F44E881918093BB0000
:103B10004093BC008091BC0090E0880F892F881FE3
:103B2000990B892BB9F38091B900E217F30769F774
:103B300084E98093BC008091BC0084FDFCCF0C9490
:103B400078121F778FCF009749F0DC01ED91FC913F
:103B50001197309719F02081211103C089E090E07E
:103B600008952681378112968D919C91139728177D
:103B70003907A1F781810E94B43280FF03C083E03E
:103B800090E0089580E090E008950F93CF93DF9345
:103B9000EC019A01AB01BC016E5C7F4F01E08981B1
:103BA0000E94A633892B29F083E0DF91CF910F91FA
:103BB0000895FE01E05DFD4F8081918185359A4A2F
:103BC00029F082E0DF91CF910F910895E85CF140F8
:103BD00080819181A281B381BB2786349144A44521
:103BE000B10569F0CC57DF4F488159816A817B81EB
:103BF000772781E04634514464457105B1F680E091
:103C0000D4CF2F923F924F925F926F927F928F927A
:103C10009F92AF92BF92CF92DF92EF92FF920F935B
:103C20001F93CF93DF93CDB7DEB72E970FB6F894DF
:103C3000DEBF0FBECDBFDC01ED91FC91119720815D
:103C4000022E000C330B205331092A30310518F4B1
:103C500051815A3311F1DB011D921C92E090F00466
:103C6000F090F104FE86ED86E114F10409F444C0FD
:103C7000142FFB01F182E082D7018C91882381F11E
:103C800011968C910E94B43280FD2AC0112311F04C
:103C900082FD39C080E090E00AC03296ED93FC933B
:103CA000FB0111821082232BC9F28BE090E02E964B
:103CB0000FB6F894DEBF0FBECDBFDF91CF911F913D
:103CC0000F91FF90EF90DF90CF90BF90AF909F90BB
:103CD0008F907F906F905F904F903F902F900895BE
:103CE000ED85FE851082118280E00E94BB3280FF4C
:103CF00006C083E090E0DBCF8CE090E0D8CF1123CA
:103D000029F082FF03C08AE090E0D1CF40E050E08C
:103D1000BA018D859E850E94C51D813059F0C12C48
:103D2000D12C7601833009F476C18823C9F08DE067
:103D300090E0BDCFED85FE85EC50FE4F808188235D
:103D4000B1F3ED85FE85E850FE4FC080D180E28062
:103D5000F380B701A6018D859E850E94C51DE2CF27
:103D6000AD85BE85DD968D919C91DE978115924043
:103D7000F1F6ED85FE85E85BFF4F80809180A12CF8
:103D8000B12C81149104A104B10441F4ED85FE85A8
:103D9000EA5AFF4F80809180A280B380ED85FE8536
:103DA000828E938EA48EB58EEE5BFF4FA081ED8543
:103DB000FE85A3838FEF8A0F823008F0B8CF17AD4E
:103DC0001283112309F4B3CF812F90E09C0121507D
:103DD000310982239323892B09F0A9CFED5BFF4F93
:103DE00020803180ED85FE8531862086C1018F706F
:103DF0009927892B09F09BCFEB5BFF4F40805180C7
:103E0000920140E050E029833A834B835C83232B6B
:103E1000242B252B69F48D859E858E5A9F4FFC019E
:103E2000208131814281538129833A834B835C8392
:103E3000ED85FE85E05CFF4F608071806114710448
:103E400009F475CFB0E0A50194010E94933569870C
:103E50007A878B879C87930140E050E02D833E83D7
:103E60004F835887C101929582958F7089279F70E3
:103E70008927280F391F411D511D49845A846B849D
:103E80007C84420E531E641E751E89819A81AB810B
:103E9000BC8184159505A605B70508F448CFBC017B
:103EA000CD016419750986099709212F30E040E09A
:103EB00050E00E946235211531054105510509F494
:103EC00036CF263F9FE039074105510508F438C138
:103ED000263FAFEF3A074105510508F4D3C0BA01B8
:103EE000A9014E5F5F4F6F4F7F4FED85FE85468B7B
:103EF000578B608F718FC68ED78EE0A2F1A28D8115
:103F00009E81AF81B8858C0D9D1DAE1DBF1D82A306
:103F100093A3A4A3B5A3D301C2018C0D9D1DAE1D17
:103F2000BF1D82A793A7A4A7B5A7232809F0FFCE9A
:103F3000ED85FE85E25AFF4F80819181A281B38198
:103F4000ED85FE8586A397A3A0A7B1A7DB01CA01D3
:103F5000880F991FAA1FBB1F880F991FAA1FBB1F7D
:103F600081509E4FAF4FBF4F79E0B695A79597957B
:103F700087957A95D1F788169906AA06BB0608F4A4
:103F8000D6CE8FEF9FEFDC01ED85FE858687978784
:103F9000A08BB18BDF0112861386148615861582DD
:103FA000EE59FF4F80819181A7019601280F391F9B
:103FB000411D511DFD01228B338B448B558B01E03C
:103FC000BD016E5C7F4F81810E94A633892B49F42D
:103FD000ED85FE85E05DFD4F8081918185359A4AB2
:103FE000E9F083E0AD85BE858C938091EE049091DD
:103FF000EF0401969093EF048093EE0417969C9340
:104000008E931697FD0116A617A610AA11AA148260
:1040100080E090E04CCE81E090E049CEED85FE85D9
:1040200082A993A9A4A9B5A982359245A146B14414
:10403000C1F6ED85FE85EA5EFD4F80819181A2810A
:10404000B38182379247A144B14659F6ED85FE858A
:10405000E25EFD4F80819181A281B381ED85FE8575
:1040600082879387A487B587E65EFD4F8081918123
:10407000A281B381ED85FE8586879787A08BB18B62
:1040800083E0B0CFBA01A9014E5F5F4F6F4F7F4F02
:10409000AD85BE8556964D935D936D937C935997F0
:1040A000FD01C68ED78EE0A2F1A28D819E81AF81E7
:1040B000B8858C0D9D1DAE1DBF1D82A393A3A4A327
:1040C000B5A3C40CD51CE61CF71CC2A6D3A6E4A657
:1040D000F5A6232809F42BCEE984FA840B851C85E8
:1040E0008E0D9F1DA01FB11FED85FE8586A397A392
:1040F000A0A7B1A7DB01CA01880F991FAA1FBB1F88
:1041000081509E4FAF4FBF4F59E0B695A7959795F9
:1041100087955A95D1F788169906AA06BB0608F422
:1041200006CE8FEF9FEFDC01ED85FE8586879787B2
:10413000A08BB18B128613861486158682E052CF2F
:104140002E5F3F4F4F4F5F4FAD85BE8556962D93E7
:104150003D934D935C935997FD01C68ED78EE0A297
:10416000F1A28D819E81AF81B8858C0D9D1DAE1D04
:10417000BF1D82A393A3A4A3B5A3C40CD51CE61CA6
:10418000F71CC2A6D3A6E4A6F5A6232809F4CFCD32
:10419000E984FA840B851C858E0D9F1DA01FB11F1D
:1041A000ED85FE8586A397A3A0A7B1A7DA01C90173
:1041B00081709927AA27BB276C017D01FFEFCF0EE5
:1041C000F1E0DF1EE11CF11CA3E0B0E00E9493359A
:1041D000DC01CB01B695A795979587958C0D9D1D14
:1041E000AE1DBF1D39E0B695A795979587953A9571
:1041F000D1F788169906AA06BB0608F498CD8FEF6A
:104200009FEFDC01ED85FE8586879787A08BB18BBC
:10421000128613861486158681E0E4CE8F929F92D3
:10422000AF92BF92CF92DF92EF92FF920F93CF9314
:10423000DF93EC01CEA4DFA4E8A8F9A84C0122E3A7
:10424000820E911C01E0A7019601B40189810E94B0
:104250001E34892B09F042C01C824AA15BA16CA1CB
:104260007DA1C416D506E606F70650F18A8D9B8D12
:10427000AC8DBD8D480F591F6A1F7B1FC416D50614
:10428000E606F706E8F4AB80B12C22E0A216B104F2
:1042900028F416C08A8D9B8DAC8DBD8DC80ED91E9D
:1042A000EA1EFB1E01E0A7019601B40189810E946C
:1042B0001E3481E0A81AB10821E0A216B10451F71A
:1042C00080E090E0DF91CF910F91FF90EF90DF9031
:1042D000CF90BF90AF909F908F90089581E090E035
:1042E000F1CF0F93CF93DF93EC018C81811115C037
:1042F00088818330D9F040E050E060E089810E94FD
:10430000963431E020E0892B31F0832F922FDF911A
:10431000CF910F91089530E0F8CFCE010E940E2189
:10432000009731F3DF91CF910F9108958D8188230C
:1043300011F31EA61FA618AA19AABE016E5C7F4F14
:10434000FB019E012E5C3D4F1192E217F307E1F74E
:1043500085E59AEAFE01E05DFD4F9183808382E569
:1043600092E5A1E6B1E48AAB9BABACABBDAB82E717
:1043700092E7A1E4B1E67A9780839183A283B38325
:104380008E859F85A889B989349680839183A2837D
:10439000B3838A859B85AC85BD8534968083918364
:1043A000A283B3832A893B894C895D8901E0898195
:1043B0000E941E341D829FCFCF92DF92EF92FF9218
:1043C0000F93CF93DF93FC01C6A4D7A4E0A8F1A874
:1043D000C416D506E606F70671F16A017B01EC0109
:1043E0008481811119C001E0A7019601BE016E5CB4
:1043F0007F4F89810E94A633892B99F4CEA6DFA630
:10440000E8AAF9AA80E090E0DF91CF910F91FF90A8
:10441000EF90DF90CF900895CF010E940E21892B5D
:1044200011F381E090E0DF91CF910F91FF90EF9039
:10443000DF90CF90089580E090E0DF91CF910F91D1
:10444000FF90EF90DF90CF900895AF92BF92CF9200
:10445000DF92EF92FF921F93CF93DF93EC016A01FB
:104460007B018881823009F481C0833009F451C016
:10447000813069F06FEF7FEFCB01DF91CF911F911A
:10448000FF90EF90DF90CF90BF90AF9008955A01CA
:10449000B694A794AC0CBD1CC501892F99278695AD
:1044A0004AA15BA16CA17DA1480F591F611D711D1F
:1044B000CE010E94DC21892BE9F6F501F170EC0FA9
:1044C000FD1F12A98FEFA81AB80AC501892F9927D5
:1044D00086954AA15BA16CA17DA1480F591F611D62
:1044E000711DCE010E94DC21892B21F681E0B822CA
:1044F000CA0DDB1D8AA9612F70E0782BC0FE59C060
:10450000729562956F7067277F70672780E090E0F3
:10451000B4CF8AA19BA1ACA1BDA127E076956795F8
:10452000579547952A95D1F7480F591F6A1F7B1F4A
:10453000CE010E94DC21892B09F09CCFCC0CDD1C24
:10454000EE1CFF1CCC0CDD1CEE1CFF1C8CEFC822EB
:1045500081E0D822EE24FF24CC0DDD1D8AA99BA981
:10456000ACA9BDA9BC01CD019F7087CF77276F2D66
:104570005E2D4D2D8AA19BA1ACA1BDA1480F591F55
:104580006A1F7B1FCE010E94DC21892B09F072CFAC
:10459000CC0CDD1CEE1CFF1CE894C0F881E0D82296
:1045A000EE24FF24CC0DDD1D6AA97BA980E090E0FC
:1045B00064CF7F7080E090E060CFAF92BF92CF92E7
:1045C000DF92EF92FF920F931F93CF93DF938C01B3
:1045D000EB01DC0115967C936E93149716964D9122
:1045E0005D916D917C91199741305105610571057F
:1045F00069F0FC01A080B180F50186899789A08DC2
:10460000B18D481759076A077B0768F082E090E090
:10461000DF91CF911F910F91FF90EF90DF90CF909E
:10462000BF90AF900895411551056105710509F0DE
:1046300048C020812330D9F1D8011A961D921D92CD
:104640001D921C921D97F50180859185C817D90789
:10465000E8F686A197A1A0A5B1A59E013295229565
:104660002F7023273F702327AC01BD01420F531F3A
:10467000611D711DD8011E964D935D936D937C93C2
:104680005197F501F296CF70DD27CC0FDD1FC29553
:10469000D295D07FDC27C07FDC27EC0FFD1FD8012F
:1046A0005396FC93EE93529780E090E0B1CF46A1F1
:1046B00057A160A571A5411551056105710509F462
:1046C000BBCFF501E280F0E1EF9E70011124CE1521
:1046D000DF0530F537C0C5010E942522AB01BC01C2
:1046E0004F3FFFEF5F076F077F0709F45EC042305F
:1046F00051056105710508F489CFD801AD90BC90D2
:10470000F50186899789A08DB18D481759076A07E9
:104710007B0708F07BCFCE19DF09CE15DF0590F0BF
:10472000423051056105710508F470CFF5018689A5
:104730009789A08DB18D481759076A077B0708F044
:1047400065CFC9CFF80142875387648775879A017F
:10475000AB0122503109410951090297A109B10960
:10476000281739074A075B0718F5F501A281B0E061
:104770000E949335C2A4D3A4E4A4F5A4DC01CB0128
:104780008C0D9D1DAE1DBF1D9E01329522952F7073
:1047900023273F702327820F931FA11DB11DF8010E
:1047A00086879787A08BB18B6CCF81E090E030CF6C
:1047B00080E090E0DC01E8CF4F925F926F927F92B1
:1047C0008F929F92AF92BF92CF92DF92EF92FF9221
:1047D0000F931F93CF93DF93EC016A017B012801B4
:1047E00039011881123009F496C0133009F458C009
:1047F0001130B9F092E0A92EB12C81E08C83C50173
:10480000DF91CF911F910F91FF90EF90DF90CF90AC
:10481000BF90AF909F908F907F906F905F904F90E0
:1048200008954A0196948794840E951EC401892F99
:10483000992786954AA15BA16CA17DA1480F591FBC
:10484000611D711DCE010E94DC215C01892BA9F63E
:10485000C4019170FE01E80FF91FC0FE82C082A959
:10486000282F2F7030E1439EC0011124822B82AB90
:104870008FEF881A980A1C83C401892F992786957F
:104880004AA15BA16CA17DA1480F591F611D711D3B
:10489000CE010E94DC21009709F487C05C01ADCFF6
:1048A0008AA19BA1ACA1BDA137E0769567955795EC
:1048B00047953A95D1F7480F591F6A1F7B1FCE01C4
:1048C0000E94DC215C01892B09F097CFCC0CDD1C08
:1048D000EE1CFF1CCC0CDD1CEE1CFF1C8CEFC82258
:1048E00081E0D822EE24FF2432E3C30ED11CFE0166
:1048F000EC0DFD1D80819181A281B38188279927CC
:10490000AA27B07F482A592A6A2A7B2A40825182E4
:104910006282738272CF77276F2D5E2D4D2D8AA113
:104920009BA1ACA1BDA1480F591F6A1F7B1FCE01DF
:104930000E94DC215C01892B09F05FCFCC0CDD1CCF
:10494000EE1CFF1CE894C0F881E0D822EE24FF247E
:1049500032E3C30ED11CFE01EC0DFD1D51824082DD
:104960004CCF42AA3FEF831A930A1C83C401892FBC
:10497000992786954AA15BA16CA17DA1480F591F7B
:10498000611D711DCE010E94DC21009709F086CFC8
:1049900031E09322FE01E80DF91D92A9907F852D4B
:1049A0008F70492E482A42AA28CF81E0982284E0BD
:1049B00076946794579447948A95D1F7FE01E80D51
:1049C000F91D42AA1ACF4F925F926F927F928F92F7
:1049D0009F92AF92BF92CF92DF92EF92FF920F938E
:1049E0001F93CF93DF93EC012A013B014115510541
:1049F0006105710509F06BC08A849B84AC84BD8419
:104A00000E891F89288D398D81149104A104B10468
:104A100009F07FC0812C912C5401839475016401AD
:104A200031C082E088169104A104B10408F478C072
:104A30000330110521053105A8F182E0C82ED12CE3
:104A4000E12CF12CB701A601CE010E9425226115AF
:104A500071058105910509F467C06F3F2FEF72075B
:104A60008207920719F16130710581059105D1F036
:104A70008C149D04AE04BF0409F452C00E891F8932
:104A8000288D398D8FEFC81AD80AE80AF80AC0169F
:104A9000D106E206F30628F622E0C216D104E104AC
:104AA000F10480F661E070E080E090E0DF91CF916A
:104AB0001F910F91FF90EF90DF90CF90BF90AF903C
:104AC0009F908F907F906F905F904F9008954230AD
:104AD00051056105710530F38E899F89A88DB98DC7
:104AE000481759076A077B07E8F6CE010E9425227E
:104AF0006230710581059105A8F20E891F89288D04
:104B0000398D601771078207930780F253014201C4
:104B100085CF80169106A206B30608F47FCF7ACF20
:104B200060E070E0CB01C2CF8E899F89A88DB98DDE
:104B3000C816D906EA06FB0648F082E090E0019725
:104B400009F0B0CF6FEF7FEFCB01B0CF0FEF1FEFCA
:104B50002FEF3FE0B701A601CE010E94DC230097B2
:104B600071F74114510461047104C1F082E04816E8
:104B700051046104710408F38E899F89A88DB98D51
:104B8000481659066A067B06C0F697018601B301EE
:104B9000A201CE010E94DC23009789F6CA86DB863B
:104BA000EC86FD868E859F85A889B9898F3F2FEF7A
:104BB0009207A207B20749F00197A109B1098E87B0
:104BC0009F87A88BB98B81E08D83C701B6016ECF1B
:104BD0004F925F926F927F928F929F92AF92BF920D
:104BE000CF92DF92EF92FF920F931F93CF93DF93B9
:104BF000DC011496CD91DC911597219699F484E00F
:104C000090E0DF91CF911F910F91FF90EF90DF9097
:104C1000CF90BF90AF909F908F907F906F905F905C
:104C20004F900895FC0186849784A088B1888114F0
:104C30009104A104B10419F33B018C017E01FFE052
:104C4000EF22FF24E114F104D9F0DC01ED91FC9195
:104C5000D8011596DC93CE931497F296EE0CFF1CB8
:104C6000E294F29480EFF822FE24E822FE24EE0D76
:104C7000FF1D5396FC93EE93529780E090E0C1CFD6
:104C8000BFEF8B1A9B0AAB0ABB0AFC01868697868C
:104C9000A08AB18A42855385648575854115510581
:104CA0006105710511F10190F081E02D828190E0A4
:104CB00001979E01329522952F7023273F7023275D
:104CC00082239323892B21F642305105610571051A
:104CD00048F086899789A08DB18D481759076A07D2
:104CE0007B0768F082E090E08CCF0190F081E02DAE
:104CF00080859185C817D90708F081CFA9CFCF014A
:104D00000E9425224B015C016230710581059105ED
:104D100048F36F3F7F4F8F4F9F4F09F451C0D80129
:104D2000ED91FC9146895789608D718D84169506A9
:104D3000A606B70670F524013501B2E04B1A5108FA
:104D400061087108D8011A968D929D92AD92BC921D
:104D50001D97DB01CA010297A109B109481659063E
:104D60006A067B0680F5A281B0E0A30192010E9451
:104D7000933582A493A4A4A4B5A4860E971EA81E5E
:104D8000B91ED8011E968D929D92AD92BC925197FC
:104D90005FCF672809F433CFD8011A964D915D9102
:104DA0006D917C911D97CF010E94E3244B015C0122
:104DB000611571058105910551F487E090E021CFDF
:104DC00081E090E01ECF812C912C5401DACF61302C
:104DD00071058105910509F485CF6F3F7F4F8F4F96
:104DE0009F4F71F3D801ED91FC918481811157C0DF
:104DF000DF01D296EE5CFD4F1D92AE17BF07E1F7C3
:104E0000D801ED91FC9124013501B2E04B1A510813
:104E10006108710886899789A08DB18D0297A109D3
:104E2000B109481659066A067B0608F053C0A281EC
:104E3000B0E0A30192010E94933522A533A544A5B9
:104E400055A5DC01CB01820F931FA41FB51F86A7B8
:104E500097A7A0ABB1ABD12CCC24C3940CC086A532
:104E600097A5A0A9B1A90196A11DB11D86A797A7D5
:104E7000A0ABB1ABD3948281D816D8F4C482D80148
:104E8000ED91FC918481882351F3CF010E940E2182
:104E9000892B09F095CFD801ED91FC91E0CFCF019E
:104EA0000E940E21892B09F08BCFD801ED91FC9146
:104EB0009FCF86A597A5A0A9B1A98D199109A10990
:104EC000B10986A797A7A0ABB1AB46895789608D7A
:104ED000718D38CF80E090E0DC01B9CF6F927F9286
:104EE0008F92AF92BF92CF92DF92EF92FF921F9379
:104EF000CF93DF933C01EB0188818F3209F439C1F4
:104F00008C3509F436C1D30116961D921D921D925F
:104F10001C9219978881803208F42DC1D3015496D0
:104F2000CD90DC90559750E2B52E65E0862E02C0FC
:104F3000219688818F32E1F38C35D1F3F601C601D9
:104F40000B96B192E817F907E1F7DE0180E090E0F7
:104F500060E070E048E0E42EF12CA12C6F5F7F4F01
:104F60001D91113278F11F3209F45EC01C3509F42D
:104F70005BC01E32D9F18E159F0548F517FD4BC059
:104F8000412F50E04232510511F1EBE9F2E006C049
:104F9000022E000C330B42175307C9F02191211147
:104FA000F7CF2FEB210F2A3168F5FA2DF260AF2EE3
:104FB000F601E80FF91F108301966F5F7F4F1D9177
:104FC000113288F6C60FD71F24E0892B91F586E0B1
:104FD00090E0DF91CF911F91FF90EF90DF90CF9005
:104FE000BF90AF908F907F906F900895E8E0EE169D
:104FF000F10469F7AA0CAA0C88E090E03BE0E32EEC
:10500000F12CACCF2FE9210F2A3190F62A2D216007
:10501000A22E1052CDCFEA2DE360AE2EE12FF0E0AC
:10502000E357FF4F1081ACCFC60FD71F20E0892B6D
:1050300071F2D6018C91853E09F486C0B8E0EB167A
:10504000F10409F487C08A2D8370813009F489C086
:105050008A2D8C70843009F48AC0F601238760E0C1
:1050600070E0C3010E94DD22009749F04CC060E06F
:1050700070E0C3010E94E825009709F044C0D30105
:105080001E964D915D916D917C9151978D919C9162
:105090000E94DC210097B9F5F30142895389DA01B6
:1050A0008C91882309F447C01B966C911B9763FD74
:1050B000DECFC488D588F60111969601255F3F4F53
:1050C00091919813D4CFE217F307D9F4F6018385B1
:1050D00082FD5DC064FF35C0DA015A968D919C91C6
:1050E0005B97A0E0B0E0F30120813181F9012081DC
:1050F0002330A1F0F30186839783A087B18788814D
:1051000019CF8D91DDCFD3015496ED91FC91559738
:1051100023858430910509F05CCF11C0FA014489E0
:10512000558960E070E0BA0155274427842B952B00
:10513000A62BB72BDFCF0488F589E02D238522FD30
:1051400023C085E090E045CF8C92B8E0EB16F104E7
:1051500009F079CFAA0CAA0C8A2D8370813009F04E
:1051600077CF20618A2D8C70843009F076CF28604B
:1051700074CF2196C8CE60E070E0C3010E94DD22AA
:10518000F301138A128A25CF84E090E022CF80E0D9
:1051900090E01FCF0F931F93CF93DF93EC018B0110
:1051A00084E090E024C0888199810E94DC210097EE
:1051B00091F5EA89FB898081882359F19385853EA1
:1051C00079F08E3269F0892F8F738F3049F021E0AA
:1051D00030E0883011F020E030E02017310791F006
:1051E00060E070E0CE010E94E8250097A1F44E85B2
:1051F0005F8568897989411551056105710599F6C1
:10520000009749F480E090E0DF91CF911F910F91DA
:10521000089584E090E01E861F86188A198ADF911F
:10522000CF911F910F9108957F928F929F92AF928D
:10523000BF92CF92DF92EF92FF920F931F93CF9383
:10524000DF93EC016A017B01772473948E899F8937
:10525000A88DB98DC816D906EA06FB0608F056C017
:1052600022E0C216D104E104F10408F1B701A6015D
:10527000CE010E9425224B015C01672B682B692B14
:1052800009F444C081E088169104A104B10479F0C6
:105290002FEF82169206A206B206D9F18E899F8957
:1052A000A88DB98DC816D906EA06FB0680F082E003
:1052B00090E0DF91CF911F910F91FF90EF90DF90E1
:1052C000CF90BF90AF909F908F907F90089500E017
:1052D00010E09801B701A601CE010E94DC230097DF
:1052E00041F78E859F85A889B9898F3F2FEF920757
:1052F000A207B20741F00196A11DB11D8E879F87BD
:10530000A88BB98B7D8275016401A0CF80E090E00D
:10531000D0CF81E090E0CDCFCF93DF93EC014E85ED
:105320005F8568897989888199810E94DC2100974D
:1053300039F4EA89FB892081253E11F0211103C04F
:10534000DF91CF91089561E070E0CE010E94E825E1
:10535000009729F3DF91CF9108950F931F93CF9377
:10536000DF93EC0160E070E00E94DD22009781F5A0
:10537000CE010E948C29009759F54E855F8568897A
:105380007989888199810E94DC21009709F5EA8951
:10539000FB899F01205E3F4F1192E217F307E1F76F
:1053A0000C891D896A897B89D801AB01465F5F4FF3
:1053B000FB012D913D9121933193E417F507C9F736
:1053C000F8012285FB012287E881F98121E024830D
:1053D000DF91CF911F910F910895882319F08BE0F1
:1053E00090E00895E091F004F091F104309709F015
:1053F00010826115710511F0FB0110827093F104A8
:105400006093F00480E090E008954F925F926F9275
:105410007F928F929F92AF92BF92CF92DF92EF9244
:10542000FF920F931F93CF93DF93CDB7DEB7A4976F
:105430000FB6F894DEBF0FBECDBF7CA36BA3009761
:1054400031F1F42E8C01DC011D921C924E71BE01D3
:105450006F5F7F4FCE0183960E94011E0097D1F0AF
:10546000A4960FB6F894DEBF0FBECDBFDF91CF91EB
:105470001F910F91FF90EF90DF90CF90BF90AF9072
:105480009F908F907F906F905F904F90089589E0EC
:1054900090E0E6CFBF2DBF71EB2ECE0147969E8BDD
:1054A0008D8B6BA17CA146970E946E27CB88DC88F0
:1054B0000097D1F4C114D10409F495C08F2D8C71DB
:1054C00009F073C0F601838584FD8AC0F1FE02C035
:1054D00080FD75C04F2D4870E981FA814423E1F0C9
:1054E0002E2D2062E22E18C04F2D4C7109F4B8CF3A
:1054F0008430910509F0B4CFCE0101960E94AD2908
:10550000CB88DC88EE2DE860EE2E009709F0A8CF5E
:10551000E3FC6CC0E981FA8146A557A560A971A991
:10552000D8015A964D935D936D937C935D975F96EA
:10553000DC92CE925E971496EC92D6015A968D919B
:105540009C915B974C01A12CB12C20812330D1F18F
:10555000D8011E968D929D92AD92BC925197D60124
:105560005C964D915D916D917C915F97D8011A96F3
:105570004D935D936D937C931D9716961D921D928E
:105580001D921C92199756961D921D921D921C9267
:1055900059971196FC93EE938681978113969C936D
:1055A0008E93129780E090E05BCFD6011B968C9192
:1055B000817129F4F2FEACCF88E090E051CF87E012
:1055C00090E04ECF54964D915C91559760E070E01D
:1055D000BA0155274427842A952AA62AB72AB8CF84
:1055E00084E090E03DCF86E090E03ACF0E94D50481
:1055F000F60166877787808B918B1386D601148E90
:10560000158E168E178EE981FA815A968D909C9090
:105610005B97A12CB12C8081833039F1D6015B9648
:105620001C921E925A9755961C921E92549781E096
:10563000848381149104A104B10409F451CF46A4D8
:1056400057A460A871A8B2E08B169104A104B1041C
:1056500048F086899789A08DB18D88169906AA068B
:10566000BB0688F082E090E0FBCE54968D919C9131
:105670005597A0E0B0E0DC0199278827882A992A6D
:10568000AA2ABB2ACBCFB501A401CF010E941429BD
:10569000009709F0E5CE89819A81E1E08E1A9108A0
:1056A000A108B108DC011A968D929D92AD92BC9230
:1056B0001D97B301A2010E94DC21009709F0D0CE12
:1056C000E981FA810DCF2F923F924F925F926F92B4
:1056D0007F928F929F92AF92BF92CF92DF92EF9282
:1056E000FF920F931F93CF93DF93CDB7DEB72D9724
:1056F0000FB6F894DEBF0FBECDBF98878F835B01D6
:105700006A014901D9011D921C920E94A31D0097B4
:1057100049F4EF81F885848187FD1DC081FD1EC09D
:1057200087E090E02D960FB6F894DEBF0FBECDBF98
:10573000DF91CF911F910F91FF90EF90DF90CF906D
:10574000BF90AF909F908F907F906F905F904F90A1
:105750003F902F90089582E090E0E4CF42855385FA
:10576000648575858A019B010C0D1D1D211D311D50
:105770000417150726073707B8F44680578060845A
:105780007184441555056605770530F4EF81F88579
:1057900042865386648675868062AF81B88514968A
:1057A0008C9380E090E0BECFC114D10409F40DC207
:1057B000EF81F8854680578060847184212C42E017
:1057C000342EB096FE83ED83EF80F884F0EEEF1A6E
:1057D000FDEFFF0A93018201117022273327011583
:1057E00011052105310509F02FC1AF81B885ED9173
:1057F000FC9112811150D301C20139E0B695A795F1
:10580000979587953A95D1F7182351F5AF81B885CB
:1058100045284628472809F06EC11E966D917D9156
:105820008D919C915197611571058105910509F440
:1058300086C1613071058105910509F4BBC16F3FD7
:10584000BFEF7B078B079B0709F49BC1AF81B8852E
:1058500052966D937D938D939C935597ED91FC910A
:10586000AF81B88514960C91149706FD29C1AF81BC
:10587000B88552962D913D914D915C91559722504E
:1058800031094109510986899789A08DB18D029707
:10589000A109B109281739074A075B0708F079C140
:1058A00042804986A42DB0E00E94933522A533A5FD
:1058B00044A555A5260F371F481F591F211531052F
:1058C0004105510509F465C129013A01410E511CF8
:1058D000611C711C49825A826B827C823601672C62
:1058E000772466946114710409F479C0212F30E0A3
:1058F000A901460D571D5984852D90E08417950701
:1059000018F43C01621A730A062D29813A814B81F1
:105910005C81B50181810E941E34AF81B885892BDD
:1059200009F03FC156962D913D914D915C9159974B
:1059300089819A81AB81BC81281B390B4A0B5B0B97
:1059400029833A834B835C83A30160E070E0898103
:105950009A81AB81BC8184179507A607B707B8F475
:10596000ED81FE81DC01BA2FAA27BB0FAA0DBB1D5A
:105970008D919D9181939193EE15FF05C9F7AF81AC
:10598000B88514968C9114978F7B14968C93B301E1
:10599000762F6627770FEF81F885468057806084E1
:1059A0007184A60EB71E460E571E611C711CEF8136
:1059B000F8854682578260867186D4018D919C91CC
:1059C0001197860F971F8D939C93C61AD70A09F0DB
:1059D00001CF42855385648575858481D2CEAF81A0
:1059E000B88556964D905D906D907C905997298121
:1059F0003A814B815C81421653066406750609F4B0
:105A000097C016964D905D906D907C9019971A9660
:105A10004D915D916D917C911D97441655066606DA
:105A2000770608F499C029813A814B815C81AF8166
:105A3000B88556962D933D934D935C93599793015A
:105A40008201117022273327C2019170B101681BB6
:105A5000790BC616D70608F4B601A801405E5F4F61
:105A6000EF81F8854E0F5F1F6130710509F45EC04C
:105A7000D5019B01FA018D919D91819391932250C3
:105A8000310922303105B8F7FB013297EE7F3296AB
:105A90004E0F5F1FEA0DFB1D60FF09C08081DA0118
:105AA0008C93EF81F8854680578060847184AF8144
:105AB000B88514968C911497806414968C9371CF4A
:105AC00056962D913D914D915C91599701E06D81D4
:105AD0007E8181810E941E34892B09F052C0AF81E2
